:100F810006270A0A0A0A0A0A0635010203040506A7
:0E0F910003240000270122000123000121009B
:100A4400E4F508F509F50AF50BF50C120C4BEFF477
:100A5400600C120C4B8F08120C4BEFF470F9E50884
:100A6400D394304023E5089439501DE52C640A7072
:100A740017E50824D0FFAB240526E526AA25700235
:100A8400052514F9EF020A32E508642A7067F509AE
:100A9400F50AAF0A74352FF8E6FE74272FF8E66ED0
:100AA4006006750B00750C01050AE50A700205095C
:100AB4006406450970DCE50C6401450B70040523EC
:100AC400800A752201E4F523FF120ED9E52364039D
:100AD4007007752202FF120ED9E4F509F50A74278E
:100AE400250AF8760A050AE50A700205096406452E
:100AF4000970EB801FE508B42324E4F509F50A74B2
:100B040027250AF8760A050AE50A7002050964062B
:100B1400450970EB75240075250075262722E50824
:100B2400B4410DC3E523940374809480500280057E
:0E0B3400E508B44209E4F522F523FF120ED9BC
:010B42002290
:1006C300120F60750B13E4FBFD7F01120D0C750B0C
:1006D300047B08E4FD7F01120DC4E52175F00A8453
:1006E300F50B7B10E4FD7F01120D68E52175F00A1F
:1006F3008485F00B7B18E4FD7F01120D68750B10E8
:100703007B20E4FD7F01120CB0750B07E4FBFD7F3A
:1007130002120D0C750B047B08E4FD7F02120DC45D
:10072300E4F50B7B10FD7F02120D68E4F50B7B18DB
:10073300FD7F02120D68750B077B20E4FD7F02121B
:100743000DC4AF22EF600464017054E4F50BFB7D2C
:10075300027F01120CB0750B017B107D027F011229
:100763000CB0750B027B207D027F01120CB0750B60
:10077300047B307D027F01120DC4E4F50B7B387DD1
:10078300027F01120D68E4F50BFB7D027F02120D5F
:1007930068750B017B087D027F02120D688036E5C8
:1007A3002264027030750B0C7B207D027F01120CDA
:1007B300B0750B0D7B307D027F01120CB0750B0EF3
:1007C300E4FB7D027F02120CB0750B0F7B107D02E0
:1007D3007F02120CB0E522705685270BFB7D047F48
:1007E30001120D6885280B7B087D047F01120D68BB
:1007F30085290B7B107D047F01120D68852A0B7BF5
:10080300187D047F01120D68852B0B7B207D047FEF
:1008130001120D68852C0B7B287D047F01120D6866
:1008230085230B7B307D047F02120D680208C6E529
:100833002264017041F50BFB7D047F01120CB0753E
:100843000B017B107D047F01120CB0750B027B2022
:100853007D047F01120CB0750B037B307D047F0197
:10086300120CB0750B04E4FB7D047F02120CB0750F
:100873000B057B108046E52264027047F50B7B1065
:100883007D047F01120CB0750B017B207D047F0179
:10089300120CB0750B027B307D047F01120CB07516
:1008A3000B03E4FB7D047F02120CB0750B067B1077
:1008B3007D047F02120CB0750B077B207D047F0241
:1008C300120CB0E522702F750B08FB7D067F011219
:1008D3000CB0750B097B107D067F01120CB0750BF4
:1008E3000A7B207D067F02120CB0750B0B7B307DDB
:1008F300067F02120CB0120EA3EEC4F854F0C8EF38
:0C090300C4540F48F521120A440206C635
:10000300108C4404E40495A64424148444940C0002
:1000130002027A414143427E42424243F8000000D9
:100023000484E45C44C40002F2828282FE80800085
:1000330002017F10103F00080808084888403F006D
:1000430020908C87EC948414C847444C54C4040017
:1000530040201806FF041800FF92929292FF0000BE
:100063000000E28282828282828282FE000000009D
:1000730000003F4040404040404040404078000046
:10008300101010FF109004040404FC040404040082
:100093000444827F0100000040807F0000000000D4
:1000A30080828282FE8282828282FE8282828000BB
:1000B300008040300F0000000000FF00000000003F
:1000C30020102CE7242400E22C20BF2028E6000087
:1000D3000101017F2111804F20100F10204F80005C
:1000E3000202C23E2222E202FE02824222120000E9
:1000F300028140211A0601003F4140404078000040
:100103000484E45C44C42010E82724E4342CE00095
:1001130002017F10103F80601F09093F49897F005A
:10012300100C4444444445C64444444444140C0021
:100133008040201E2040407F4444444444404000CB
:100143000202FE929292FE0206FC040404FC0000EA
:1001530008180F080804FF0484402718274080006C
:100163001060020CC000E22C203F2028E6000000B3
:1001730004047C030000FF09090949897F0000008A
:100183004030EF246448487F4848487F484840004F
:1001930001017F211100FF4949494949FF0000003E
:1001A3004042CC0000809E92929292929E800000E8
:1001B30000007F2094844424140F14244484840076
:1001C30012EAAFAAEA0FFA02888C5724548C8400EF
:1001D3000202EAAAAAABAAABAAAAAAAAEA02020044
:1001E300101010FF109000FE82828292A29E0000E7
:1001F3000444827F010000FF80432C102C438000C5
:10020300060909E6F80C040202020202041E0000B9
:10021300000000071F3020404040404020100000F5
:1002230000E010080810E000000F102020100F005D
:1002330000001010F8000000000020203F202000E4
:10024300007008080808F00000302824222130003C
:1002530000300808088870000018202121221C00A3
:100263000000804030F8000000060524243F2424C9
:1002730000F88888880808000019202020110E0043
:1002830000E0108888900000000F112020201F003C
:1002930000180808886818000000003E01000000EC
:1002A3000070880808887000001C222121221C008D
:1002B30000F008080810E0000001122222110F00CC
:1002C3000000000000000000000101010101010025
:1002D30000000000E0000000000101010F01010126
:1002E3000000000000000000000101010101010005
:1002F300404080F0804040000202010F01020200F2
:1003030000000000C038040000601807000000006F
:10031300000000000000000000003636000000006E
:10032300000038340282C27C00000000003737002E
:1003330000020102020402000000000000000000AD
:10034300F008F0806018000000310C031E211E002D
:100353000040C07840C0780000043F04043F04001C
:100363000000804020100800000102040810200053
:100373000008102040800000002010080402010043
:100383000000C038E0000000203C23020227382090
:1003930008F8888888700000203F202020110E0074
:1003A300C03008080808380007182020201008006B
:1003B30008F808080810E000203F202020100F0054
:1003C30008F88888E8081000203F20202320180020
:1003D30008F88888E8081000203F20000300000088
:1003E300C03008080838000007182020221E020029
:1003F30008F808000008F808203F210101213F20E8
:10040300000808F8080800000020203F2020000012
:1004130000000808F8080800C08080807F00000002
:1004230008F888C028180800203F2001263820003B
:1004330008F8080000000000203F202020203000A2
:1004430008F8F800F8F80800203F013E013F2000BB
:1004530008F830C00008F808203F200007183F00C4
:10046300E01008080810E0000F10202020100F00F3
:1004730008F808080808F000203F210101010000E6
:10048300E01008080810E0000F10282830504F0033
:1004930008F8888888887000203F2000030C3020EB
:1004A30000708808080838000038202121221C0029
:1004B300180808F8080818000000203F2000000072
:1004C30008F808000008F808001F202020201F005B
:1004D3000878880000C83808000007380E010000BB
:1004E30008F800F800F8080000033E013E0300008E
:1004F300081868808068180820302C03032C3020EB
:100503000838C800C83808000000203F2000000059
:1005130010080808C83808002038262120201800B1
:10052300000080808000000000192424123F200076
:1005330010F0008080000000003F112020110E0009
:100543000000008080800000000E11202020110098
:10055300000080808090F000001F202020103F20AA
:100563000000808080800000001F242424241700C2
:10057300008080E0909020000020203F2020000099
:100583000000808080808000006B949494936000CE
:1005930010F0008080800000203F210000203F20D9
:1005A30000809898000000000020203F20200000D9
:1005B300000000809898000000C08080807F0000C9
:1005C30010F0000080808000203F240629302000A6
:1005D300001010F8000000000020203F2020000041
:1005E3008080808080808000203F20003F20003F6B
:1005F3008080008080800000203F210000203F2079
:100603000000808080800000001F202020201F0029
:10061300808000808000000080FF912020110E0068
:100623000000008080008000000E11202091FF80D8
:10063300808080008080800020203F2120000100F6
:10064300000080808080800000332424242419004B
:10065300008080E0808000000000001F2020100048
:100663008080000000808000001F202020103F2099
:10067300808080008080800000030C300C03000029
:100683008080008080008080010E300C07380601D6
:1006930000808080008080000020310E2E312000F9
:1006A30080808000008080800081867818060100A9
:1006B30000808080808080000021302C2221300047
:100FBE00C2A2D2A1E4F580D2A0AF80C2A053078016
:090FCE00EF7003D38001C350EB66
:010FD70022F7
:10101F00AE07120FBEC2A2C2A18E80D2A0C2A02262
:06103F004307B802101F78
:061045004307C002101F6A
:0F0FF200AC03120FD853043FAF0512103FAF04EA
:0910010053073F43074002101F92
:06104B0043073E02101FE6
:05100A00F583E493FFF3
:10100F00AE07120FBED2A2C2A18E80D2A0C2A02262
:100FD800EF1460111460092402700EC2A4C2A52285
:0A0FE800D2A4C2A522C2A4D2A52201
:100ED900120FD8E4FDEDC39408748094805021AFBB
:100EE9000512103FE4FF121001E4FCECC3944074B6
:100EF9008094805008E4FF12100F0C80EE0D80D50D
:010F090022C5
:100F6000120FBEE4FF120FD812104BE4FF120FD87D
:100F70000F12104BE4FF120FD8120ED9E4FF02102B
:010F8000452B
:100CB000120FF2E4FBFA75F020E50BA42BF582E5A8
:100CC000F03AF583E5822403F582E58334001210BF
:100CD0000A0BBB00010AEB64104A70DAED04FF1244
:100CE0000FFCE4FAFB75F020E50BA42BF582E5F090
:100CF0003AF583E5822413F582E583340012100A65
:0B0D00000BBB00010AEB64104A70DA24
:010D0B0022C5
:100D0C00120FF2E4FBFA75F010E50BA42BF582E55B
:100D1C00F03AF583E5822483F582E58334031210DF
:100D2C000A0BBB00010AEB64084A70DAED04FF12EF
:100D3C000FFCE4FAFB75F010E50BA42BF582E5F043
:100D4C003AF583E582248BF582E583340312100A8D
:0B0D5C000BBB00010AEB64084A70DAD0
:010D67002269
:100D6800120FF2E4FBFA75F010E50BA42BF582E5FF
:100D7800F03AF583E5822423F582E58334021210E4
:100D88000A0BBB00010AEB64084A70DAED04FF1293
:100D98000FFCE4FAFB75F010E50BA42BF582E5F0E7
:100DA8003AF583E582242BF582E583340212100A92
:0B0DB8000BBB00010AEB64084A70DA74
:010DC300220D
:100DC400120FF2E4FBFA75F010E50BA42BF582E5A3
:100DD400F03AF583E58224D3F582E58334021210D8
:100DE4000A0BBB00010AEB64084A70DAED04FF1237
:100DF4000FFCE4FAFB75F010E50BA42BF582E5F08B
:100E04003AF583E58224DBF582E583340212100A85
:0B0E14000BBB00010AEB64084A70DA17
:010E1F0022B0
:10102F003132334134353642373839432A3023444D
:100C4B00780D7C007D007BFF7A10792F7E007F1062
:100C5B001209DFE4FDEDC39404748094805043A823
:100C6B00057410088002C333D8FCF4F590E4FCEC57
:100C7B00C394047480948050267E007401A80408E9
:100C8B008005C333CE33CED8F9FFAB90EF5B700C3E
:100C9B00EC25E025E0240D2DF8E6FF220C80D00D8D
:040CAB0080B37FFF94
:010CAF002222
:100F3800C200D2A67F05121051C2A67FC812105156
:100F48007FC8121051D2A67F28121051A2A6920073
:070F58007F19121051A200E5
:010F5F00226F
:100F0A00E4F509F50A750908D3E509940074809493
:100F1A00804018C2A6E50A13F50AD2A630A60343F2
:0D0F2A000A807F19121051150980DDAF0AF1
:010F37002297
:100E2000AB3BAA3CA93D853E82758300120A05FFB3
:020E30008F0928
:100E3200E4F50A750A08D3E50A94007480948040A8
:100E42001DC2A67F05121051E5091392A67F051255
:100E52001051D2A6E509C313F509150A80D87F19E6
:030E62000210512A
:100E6500120F387F33120E307F0A7E00120FA01248
:100E75000F0A8F44120F0A8F45120F0A8F46120F61
:100E85000A8F47120F0A8F48120F0A8F49120F0A4D
:0E0E95008F4A120F0A8F4B7B007A007944229D
:100EA300E4F508FFFEFDFC120F387FCC120E307FF5
:100EB30044120E307F207E03120FA0120F387FCC16
:100EC300120E307FBE120E30120F0A8F08120F0A55
:050ED300EFFEE508FF41
:010ED80022F7
:060BCF008B3B8A3C893DCE
:100BD500E4F53FF540F541F542F543120F387F55F1
:100BE500120E30E4F53EC3E53E94087480948050BF
:100BF50007120E20053E80EE7F44120E307F207EC8
:100C050003120FA0120F387F55120E30E4F53EC3C4
:100C1500E53E9408748094805007120E20053E80AE
:100C2500EE7FBE120E30120F0A8F3F120F0A75406B
:100C3500008F41E541754100F540F542E541453FED
:050C4500F543AE42FF83
:010C4A002287
:03105100DFFE229D
:100FA000D3EF9400EE940040147D7B7C00ED1D7027
:0D0FB000011CED4C70F7EF1F70E61E80E392
:010FBD002211
:03000000020B43AD
:0C0B4300787FE4F6D8FD75814B020B8A28
:10090F00E709F608DFFA8046E709F208DFFA803ECA
:10091F0088828C83E709F0A3DFFA8032E309F608B7
:10092F00DFFA8078E309F208DFFA807088828C831F
:10093F00E309F0A3DFFA806489828A83E0A3F608D3
:10094F00DFFA805889828A83E0A3F208DFFA804CAD
:10095F0080D280FA80C680D4806980F28033801084
:10096F0080A680EA809A80A880DA80E280CA8033ED
:10097F0089828A83ECFAE493A3C8C582C8CCC58365
:10098F00CCF0A3C8C582C8CCC583CCDFE9DEE78035
:10099F000D89828A83E493A3F608DFF9ECFAA9F0B4
:1009AF00EDFB2289828A83ECFAE0A3C8C582C8CC0A
:1009BF00C583CCF0A3C8C582C8CCC583CCDFEADE23
:1009CF00E880DB89828A83E493A3F208DFF980CC85
:1009DF0088F0EF60010E4E60C388F0ED2402B4047E
:1009EF000050B9F582EB2402B4040050AF23234525
:0609FF00822390095F73E2
:100A0500BB010CE58229F582E5833AF583E02250A6
:100A150006E92582F8E622BBFE06E92582F8E222F0
:0D0A2500E58229F582E5833AF583E493220A
:100A3200BB010689828A83F0225002F722BBFE01A3
:020A4200F3229D
:100B4F000206C3E493A3F8E493A34003F68001F2F3
:100B5F0008DFF48029E493A3F85407240CC8C333A7
:100B6F00C4540F4420C8834004F456800146F6DF76
:100B7F00E4800B0102040810204080900F81E47E76
:100B8F00019360BCA3FF543F30E509541FFEE4936B
:100B9F00A360010ECF54C025E060A840B8E493A332
:100BAF00FAE493A3F8E493A3C8C582C8CAC583CA5D
:100BBF00F0A3C8C582C8CAC583CADFE9DEE780BE15
:010F9F000051
:00000001FF
