:10161D00064F0A0A0A0A0A0A0655010203040506BC
:10162D00034A00004F014800014900024600000234
:03163D004D00005D
:1010E500E4F508F509F50AF50BF50C1213ACEFF468
:1010F500600C1213AC8F081213ACEFF470F9E5080D
:10110500D394304023E5089439501DE554640A70A2
:1011150017E50824D0FFAB4A054CE54CAA4B7002F5
:10112500054B14F9EF020AFFE508642A7067F50913
:10113500F50AAF0A74552FF8E6FE744F2FF8E66EE0
:101145006006750B00750C01050AE50A70020509B4
:101155006406450970DCE50C6401450B700405491E
:10116500800A754801E4F549FF1215ECE549640369
:101175007007754802FF1215ECE4F509F50A744F7E
:10118500250AF8760A050AE50A7002050964064586
:101195000970EB801FE508B42324E4F509F50A740A
:1011A5004F250AF8760A050AE50A7002050964065C
:1011B500450970EB754A00754B00754C4F22E508E3
:1011C500B4410DC3E54994037480948050028005B1
:0E11D500E508B44209E4F548F549FF1215ECAF
:0111E30022E9
:100C9300121641750B13E4FBFD7F0112146D750BE6
:100CA300047B08E4FD7F01121525AE46AF477C00A7
:100CB3007D64120B338F0B7B10E4FD7F011214C98B
:100CC300AE46AF477C007D0A120B337C007D0A12CF
:100CD3000B338D0B7B18E4FD7F011214C9750B0BCD
:100CE3007B20E4FD7F01121525AE46AF477C007DD6
:100CF3000A120B338D0B7B28E4FD7F011214C97597
:100D03000B107B30E4FD7F01121411750B07E4FB1C
:100D1300FD7F0212146D750B047B08E4FD7F021244
:100D23001525AE4DAF4E7C007D64120B338F0B7BCC
:100D330010E4FD7F021214C9AE4DAF4E7C007D0A54
:100D4300120B337C007D0A120B338D0B7B18E4FDF1
:100D53007F021214C9750B0B7B20E4FD7F02121571
:100D630025AE4DAF4E7C007D0A120B338D0B7B28D5
:100D7300E4FD7F021214C9750B077B30E4FD7F028B
:100D8300121525AF48EF600464017054E4F50BFBC2
:100D93007D027F01121411750B017B107D027F010F
:100DA300121411750B027B207D027F011214117541
:100DB3000B047B307D027F01121525E4F50B7B3894
:100DC3007D027F011214C9E4F50BFB7D027F021241
:100DD30014C9750B017B087D027F021214C980368A
:100DE300E54864027030750B0C7B207D027F011295
:100DF3001411750B0D7B307D027F01121411750BDD
:100E03000EE4FB7D027F02121411750B0F7B107D24
:100E1300027F02121411E5487056854F0BFB7D04C7
:100E23007F011214C985500B7B087D047F011214C6
:100E3300C985510B7B107D047F011214C985520BA8
:100E43007B187D047F011214C985530B7B207D041D
:100E53007F011214C985540B7B287D047F01121472
:100E6300C985490B7B307D047F021214C9020F0729
:100E7300E54864017041F50BFB7D047F01121411F9
:100E8300750B017B107D047F01121411750B027B1E
:100E9300207D047F01121411750B037B307D047FC9
:100EA30001121411750B04E4FB7D047F021214116B
:100EB300750B057B108046E54864027047F50B7B94
:100EC300107D047F01121411750B017B207D047FBB
:100ED30001121411750B027B307D047F0112141172
:100EE300750B03E4FB7D047F02121411750B067B63
:100EF300107D047F02121411750B077B207D047F84
:100F030002121411E548702F750B08FB7D067F0153
:100F1300121411750B097B107D067F0112141175D4
:100F23000B0A7B207D067F02121411750B0B7B309D
:100F33007D067F02121411750B00750C00750D4DA3
:0F0F43007B007A0079461211E41210E5020C9639
:10000300108C4404E40495A64424148444940C0002
:1000130002027A414143427E42424243F8000000D9
:100023000484E45C44C40002F2828282FE80800085
:1000330002017F10103F00080808084888403F006D
:1000430020908C87EC948414C847444C54C4040017
:1000530040201806FF041800FF92929292FF0000BE
:100063000000E28282828282828282FE000000009D
:1000730000003F4040404040404040404078000046
:10008300101010FF109004040404FC040404040082
:100093000444827F0100000040807F0000000000D4
:1000A30080828282FE8282828282FE8282828000BB
:1000B300008040300F0000000000FF00000000003F
:1000C30020102CE7242400E22C20BF2028E6000087
:1000D3000101017F2111804F20100F10204F80005C
:1000E3000202C23E2222E202FE02824222120000E9
:1000F300028140211A0601003F4140404078000040
:100103000484E45C44C42010E82724E4342CE00095
:1001130002017F10103F80601F09093F49897F005A
:10012300100C4444444445C64444444444140C0021
:100133008040201E2040407F4444444444404000CB
:100143000202FE929292FE0206FC040404FC0000EA
:1001530008180F080804FF0484402718274080006C
:100163001060020CC000E22C203F2028E6000000B3
:1001730004047C030000FF09090949897F0000008A
:100183004030EF246448487F4848487F484840004F
:1001930001017F211100FF4949494949FF0000003E
:1001A3004042CC0000809E92929292929E800000E8
:1001B30000007F2094844424140F14244484840076
:1001C30012EAAFAAEA0FFA02888C5724548C8400EF
:1001D3000202EAAAAAABAAABAAAAAAAAEA02020044
:1001E300101010FF109000FE82828292A29E0000E7
:1001F3000444827F010000FF80432C102C438000C5
:10020300060909E6F80C040202020202041E0000B9
:10021300000000071F3020404040404020100000F5
:1002230000E010080810E000000F102020100F005D
:1002330000001010F8000000000020203F202000E4
:10024300007008080808F00000302824222130003C
:1002530000300808088870000018202121221C00A3
:100263000000804030F8000000060524243F2424C9
:1002730000F88888880808000019202020110E0043
:1002830000E0108888900000000F112020201F003C
:1002930000180808886818000000003E01000000EC
:1002A3000070880808887000001C222121221C008D
:1002B30000F008080810E0000001122222110F00CC
:1002C3000000000000000000000101010101010025
:1002D30000000000E0000000000101010F01010126
:1002E3000000000000000000000101010101010005
:1002F300404080F0804040000202010F01020200F2
:1003030000000000C038040000601807000000006F
:10031300000000000000000000003636000000006E
:10032300000038340282C27C00000000003737002E
:1003330000020102020402000000000000000000AD
:10034300F008F0806018000000310C031E211E002D
:100353000040C07840C0780000043F04043F04001C
:100363000000804020100800000102040810200053
:100373000008102040800000002010080402010043
:10038300000000000000000000303000000000000A
:100393000000C038E0000000203C23020227382080
:1003A30008F8888888700000203F202020110E0064
:1003B300C03008080808380007182020201008005B
:1003C30008F808080810E000203F202020100F0044
:1003D30008F88888E8081000203F20202320180010
:1003E30008F88888E8081000203F20000300000078
:1003F300C03008080838000007182020221E020019
:1004030008F808000008F808203F210101213F20D7
:10041300000808F8080800000020203F2020000002
:1004230000000808F8080800C08080807F000000F2
:1004330008F888C028180800203F2001263820002B
:1004430008F8080000000000203F20202020300092
:1004530008F8F800F8F80800203F013E013F2000AB
:1004630008F830C00008F808203F200007183F00B4
:10047300E01008080810E0000F10202020100F00E3
:1004830008F808080808F000203F210101010000D6
:10049300E01008080810E0000F10282830504F0023
:1004A30008F8888888887000203F2000030C3020DB
:1004B30000708808080838000038202121221C0019
:1004C300180808F8080818000000203F2000000062
:1004D30008F808000008F808001F202020201F004B
:1004E3000878880000C83808000007380E010000AB
:1004F30008F800F800F8080000033E013E0300007E
:10050300081868808068180820302C03032C3020DA
:100513000838C800C83808000000203F2000000049
:1005230010080808C83808002038262120201800A1
:10053300000080808000000000192424123F200066
:1005430010F0008080000000003F112020110E00F9
:100553000000008080800000000E11202020110088
:10056300000080808090F000001F202020103F209A
:100573000000808080800000001F242424241700B2
:10058300008080E0909020000020203F2020000089
:100593000000808080808000006B949494936000BE
:1005A30010F0008080800000203F210000203F20C9
:1005B30000809898000000000020203F20200000C9
:1005C300000000809898000000C08080807F0000B9
:1005D30010F0000080808000203F24062930200096
:1005E300001010F8000000000020203F2020000031
:1005F3008080808080808000203F20003F20003F5B
:100603008080008080800000203F210000203F2068
:100613000000808080800000001F202020201F0019
:10062300808000808000000080FF912020110E0058
:100633000000008080008000000E11202091FF80C8
:10064300808080008080800020203F2120000100E6
:10065300000080808080800000332424242419003B
:10066300008080E0808000000000001F2020100038
:100673008080000000808000001F202020103F2089
:10068300808080008080800000030C300C03000019
:100693008080008080008080010E300C07380601C6
:1006A30000808080008080000020310E2E312000E9
:1006B3008080800000808080008186781806010099
:1006C30000808080808080000021302C2221300037
:10168000C2A2D2A1E4F580D2A0AF80C2A05307804D
:09169000EF7003D38001C350EB9D
:01169900222E
:10171400AE07121680C2A2C2A18E80D2A0C2A0229D
:061742004307B802171472
:061748004307C002171464
:0F16E700AC0312169A53043FAF05121742AF041B
:0916F60053073F4307400217149B
:06174E0043073E021714E0
:0516FF00F583E493FFF8
:10170400AE07121680D2A2C2A18E80D2A0C2A0229D
:10169A00EF1460111460092402700EC2A4C2A522BC
:0A16AA00D2A4C2A522C2A4D2A52238
:1015EC0012169AE4FDEDC39408748094805021AFD8
:1015FC0005121742E4FF1216F6E4FCECC394407497
:10160C008094805008E4FF1217040C80EE0D80D5F6
:01161C0022AB
:10164100121680E4FF12169A12174EE4FF12169A30
:101651000F12174EE4FF12169A1215ECE4FF02174F
:011661004840
:101411001216E7E4FBFA75F020E50BA42BF582E543
:10142100F03AF583E5822403F582E5833400121650
:10143100FF0BBB00010AEB64104A70DAED04FF12E6
:1014410016F1E4FAFB75F020E50BA42BF582E5F02B
:101451003AF583E5822413F582E58334001216FF01
:0B1461000BBB00010AEB64104A70DABC
:01146C00225D
:10146D001216E7E4FBFA75F010E50BA42BF582E5F7
:10147D00F03AF583E5822493F582E5833403121661
:10148D00FF0BBB00010AEB64084A70DAED04FF1292
:10149D0016F1E4FAFB75F010E50BA42BF582E5F0DF
:1014AD003AF583E582249BF582E58334031216FF1A
:0B14BD000BBB00010AEB64084A70DA68
:0114C8002201
:1014C9001216E7E4FBFA75F010E50BA42BF582E59B
:1014D900F03AF583E5822423F582E5833402121676
:1014E900FF0BBB00010AEB64084A70DAED04FF1236
:1014F90016F1E4FAFB75F010E50BA42BF582E5F083
:101509003AF583E582242BF582E58334021216FF2E
:0B1519000BBB00010AEB64084A70DA0B
:0115240022A4
:101525001216E7E4FBFA75F010E50BA42BF582E53E
:10153500F03AF583E58224D3F582E5833402121669
:10154500FF0BBB00010AEB64084A70DAED04FF12D9
:1015550016F1E4FAFB75F010E50BA42BF582E5F026
:101565003AF583E58224DBF582E58334021216FF22
:0B1575000BBB00010AEB64084A70DAAF
:011580002248
:101724003132334134353642373839432A30234451
:1013AC00780D7C007D007BFF7A1779247E007F10FE
:1013BC00120AD9E4FDEDC39404748094805043A8C0
:1013CC00057410088002C333D8FCF4F590E4FCECEF
:1013DC00C394047480948050267E007401A8040881
:1013EC008005C333CE33CED8F9FFAB90EF5B700CD6
:1013FC00EC25E025E0240D2DF8E6FF220C80D00D25
:04140C0080B37FFF2B
:0114100022B9
:03175400DFFE2293
:10166200D3EF9400EE940040147D7B7C00ED1D705E
:0D167200011CED4C70F7EF1F70E61E80E3C9
:01167F002248
:10158100E4FE7D80EDD39400748094804017ED5F7C
:101591006004D2A78002C2A7D2A6000000C2A6EDB5
:1015A100C313FD80DFD2A7D2A6A2A7E433000000B7
:0515B100C2A6D2A7FF55
:0115B6002212
:1015B700E4FED2A77D80EDD3940074809480401020
:1015C700D2A630A703ED4206C2A6EDC313FD80E6FF
:1015D700EF24FFB392A7D2A6000000C2A600000026
:0415E700D2A7AF06D2
:0115EB0022DD
:1016CE00D2A7C2A600D2A600C2A700C2A6000000E2
:0916DE00D2A600D2A700C2A62288
:1016B400D2A7C2A6E4FFEFC39409748094805007B4
:0A16C400D2A6C2A60F80EF0216CED8
:0D173400E4FC1216B47F1E121581EC2FFF8D
:011741002285
:061324008B188A19891ADA
:10132A00E4F51FF5201216CEE51E146007047018A6
:10133A007F0380027F05121581EF3395E0FEEF25CA
:10134A0020F520EE351FF51F900000AF82AE83E432
:10135A00FCFD7BFF7AFFF9F8D3120B96400630A703
:10136A0003A380E730A7080520E5207002051F7F48
:10137A00011215B7AB18AA19A91AEF120AFF7F01B1
:10138A001215B7AB18AA19A91A900001EF120B117E
:10139A00E4FF1215B7AB1BAA1CA91DEF120AFFAF77
:0113AA002022
:0113AB00221F
:060F52008B188A19891AB0
:100F5800E4F521F520751F80751EC075255475248C
:100F6800E375232575223D7529A27528E775273B6A
:100F78007526B6752D0A752CD7752B23752A3C75E1
:100F880031AC7530C5752FA7752E38120BAC8F355F
:100F98008E348D338C32AB1BAA1CA91D120BAC8F5F
:100FA800398E388D378C367F0A7ED77D237C3CABD3
:100FB80039AA38A937A8361207CBE4FBFA79207882
:100FC800C21206DA8F458E448D438C42AF35AE345B
:100FD800AD33AC32AB29AA28A927A8261207CBAB78
:100FE80035AA34A933A8321207CBC004C005C006FD
:100FF800C007AF35AE34AD33AC32AB25AA24A92334
:10100800A8221207CBD003D002D001D0001206DAF2
:10101800AB21AA20A91FA81E1206DA8F3D8E3C8D8F
:101028003B8C3AAF35AE34AD33AC32AB31AA30A9D4
:101038002FA82E1207CBAB2DAA2CA92BA82A120653
:10104800DAC004C005C006C007E4FFFE7DC87CC145
:10105800AB45AA44A943A8421206DAD003D002D06D
:1010680001D0001207CBAB3DAA3CA93BA83A120617
:10107800DA8F418E408D3F8C3EE4FFFE7DC87C4276
:10108800AB41AA40A93FA83E1208D1600D400BE42D
:10109800F541F540753FC8753E427FCD7ECC7DCC8D
:1010A8007C3DAB41AA40A93FA83E1208D1500C751F
:1010B80041CD7540CC753FCC753E3DAF45AE44AD96
:1010C80043AC42AB1BAA1CA91D120BCCAF41AE40CE
:0D10D800AD3FAC3EAB18AA19A91A020BCC13
:0611E4008B088A09890A4C
:1011EA00E4F516F51B751C00751D17F51EFB7A0034
:1011FA007912121324EF2516F516751B00751C00BB
:10120A00751D17751E017B007A00790E121324EFE3
:10121A002516F51660030216B4AC0EAD0FE41209DA
:10122A004F8F118E108D0F8C0EAC12AD13E4120974
:10123A004F8F158E148D138C12751B00751C00753B
:10124A001D127B007A00790E120F52E4FFFE7D20F8
:10125A007C41AB15AA14A913A8121207CB1209884C
:10126A00AB08AA09A90AEE8FF0120B69E4FFFE7D0A
:10127A00207C41AB11AA10A90FA80E1207CB1209A4
:0D128A0088AB0BAA0CA90DEE8FF0120B69BA
:011297002234
:1006D3000209F4E86480F8E933E83360110460F058
:1006E300ED33EC337009E8FCE9FDEAFEEBFF22048D
:1006F30060DED3EB9FEA9EE99DE8C2E78CF0C2F788
:1007030095F0400CE8CCF8E9CDF9EACEFAEBCFFB53
:100713001209BF85D0F05804700320D5B3E80470E4
:10072300075002B2D50209FE92D5EC0460F7E4CC7F
:10073300C0E0C398F8603B94186008400DD0E0FB1C
:100743000209D6E4FBFAC9FC8028E830E406E4C9D0
:10075300FBE4CAFCE830E305E4C9CACBFCE8540770
:100763006010F8C3E913F9EA13FAEB13FBEC13FC7B
:10077300D8F130F52FC3E49CFCEF9BFFEE9AFEED1E
:1007830099FDD0E0FBEF4E4D4C701222DB030209C2
:10079300FBEC2CFCEF33FFEE33FEED33FDED30E7E6
:1007A300EB0209D6EF2BFFEE3AFEED39FDD0E0FB6D
:1007B30050130BBB00030209FEED13FDEE13FEEF16
:0807C30013FFEC13FC0209D640
:1007CB00EC4D6011E8497017ED33EC3304600DE428
:1007DB00FCFFFEFD22E933E8330470F80209F41242
:1007EB0009BF58046009E4CC248150062850090243
:1007FB0009FE2840030209FBC0E0EB4A7044B980B4
:10080B0006D0E0FB0209EAEF4E701CBD8008EBFF3F
:10081B00EAFEE9FD80EBE98DF0A4FEE5F00208B4F9
:10082B00E9CDF9EAFEEBFFEF89F0A4FCE5F0CE8908
:10083B00F0A42EFFE435F0CD89F0A42DFEE435F0C5
:10084B008067EF4E7005BD80D780C3EF8BF0A4ACF3
:10085B00F0EE8BF0A42CFCE435F0F8EF8AF0A42C2E
:10086B00E5F038FCE433CB8DF0A42CFCE5F03BF841
:10087B00EE8AF0A42CFCE5F038F8E433CF89F0A431
:10088B002CFCE5F038CF3400CE89F0A42FFFE5F037
:10089B003EFEE433C98DF0A42EFEE5F039CD8AF08F
:1008AB00A42FFFE5F03EFEE43DFD33D0E0FB500707
:1008BB000BBB000F0209FEEC2CFCEF33FFEE33FEFB
:0608CB00ED33FD0209D629
:1008D10074F8CC6480CCC86480C8F58204604FC3CE
:1008E100EB9FF5F0EA9E42F0E99D42F0E89C45F06D
:1008F100603C501DE5825FFFE582D313CB5BCBF4F7
:100901002B5582FB50280ABA002409B9002008801F
:100911001DE5825BFBE582D313CF5FCFF4C3132FB9
:100921005582FF50090EBE00050DBD00010CC3EB41
:100931009FF5F0EA9E42F0E99D42F0E89C45F060A7
:0909410007CC4820E701B3EC22C9
:10094A0075F020800E75F010800575F0087D007E28
:10095A00007F003392D530D503120B88EC33401058
:10096A00EF33FFEE33FEED33FDEC33FCD5F0ED2231
:0E097A00E5F0247EA2D513CC92E7CDCEFF226D
:10098800EDD2E7CD33EC3392D524814006E4FFFE67
:10099800FDFC22FCE4CFCECDCC24E0501174FF80C6
:1009A800EDC3CC13CCCD13CDCE13CECF13CF047063
:0709B800F030D5DE020B88D0
:1009BF00E9D2E7C933E833F892D5EDD2E7CD33EC7E
:0709CF0033FC5002B2D522F7
:1009D600EC30E7100FBF000C0EBE00080DBD000482
:1009E6000BEB6014A2D5EB13FCED92E7FD2274FF2E
:1009F600FCFDFEFF22E480F8A2D574FF13FC7D8087
:030A0600E480EF9A
:0300000002129851
:0C129800787FE4F6D8FD75815A0212DF61
:100A0900E709F608DFFA8046E709F208DFFA803ECF
:100A190088828C83E709F0A3DFFA8032E309F608BC
:100A2900DFFA8078E309F208DFFA807088828C8324
:100A3900E309F0A3DFFA806489828A83E0A3F608D8
:100A4900DFFA805889828A83E0A3F208DFFA804CB2
:100A590080D280FA80C680D4806980F28033801089
:100A690080A680EA809A80A880DA80E280CA8033F2
:100A790089828A83ECFAE493A3C8C582C8CCC5836A
:100A8900CCF0A3C8C582C8CCC583CCDFE9DEE7803A
:100A99000D89828A83E493A3F608DFF9ECFAA9F0B9
:100AA900EDFB2289828A83ECFAE0A3C8C582C8CC0F
:100AB900C583CCF0A3C8C582C8CCC583CCDFEADE28
:100AC900E880DB89828A83E493A3F208DFF980CC8A
:100AD90088F0EF60010E4E60C388F0ED2402B40483
:100AE9000050B9F582EB2402B4040050AF2323452A
:060AF9008223900A5973EC
:100AFF00BB010689828A83F0225002F722BBFE01D6
:020B0F00F322CF
:100B1100F8BB010DE58229F582E5833AF583E8F01A
:100B2100225006E92582C8F622BBFE05E92582C8C6
:020B3100F222AE
:100B3300C2D5EC30E709B2D5E4C39DFDE49CFCEEDD
:100B430030E715B2D5E4C39FFFE49EFE120BE6C364
:100B5300E49DFDE49CFC8003120BE630D507C3E45F
:060B63009FFFE49EFE224C
:100B6900BB010A89828A83F0E5F0A3F0225006F7D7
:0F0B790009A7F01922BBFE06F3E5F009F31922D4
:0E0B8800C3E49FFFE49EFEE49DFDE49CFC227E
:100B9600EB9FF5F0EA9E42F0E99D42F0EC6480C8D6
:060BA60064809845F02276
:100BAC00BB010789828A83020C475005E9F8020CC5
:100BBC003BBBFE05E9F8020C5389828A83020C5F69
:100BCC00BB010789828A83020C7B5005E9F8020C71
:0A0BDC006FBBFE05E9F8020C87224A
:1012A400020C93E493A3F8E493A34003F68001F2C1
:1012B40008DFF48029E493A3F85407240CC8C3334B
:1012C400C4540F4420C8834004F456800146F6DF1A
:1012D400E4800B010204081020408090161DE47E77
:1012E400019360BCA3FF543F30E509541FFEE4930F
:1012F400A360010ECF54C025E060A840B8E493A3D6
:10130400FAE493A3F8E493A3C8C582C8CAC583CA00
:10131400F0A3C8C582C8CAC583CADFE9DEE780BEB8
:0116400000A9
:100BE600BC000BBE0029EF8DF084FFADF022E4CCF3
:100BF600F875F008EF2FFFEE33FEEC33FCEE9DECBC
:100C0600984005FCEE9DFE0FD5F0E9E4CEFD22ED01
:100C1600F8F5F0EE8420D21CFEADF075F008EF2F4B
:100C2600FFED33FD4007985006D5F0F222C398FD3C
:050C36000FD5F0EA22D9
:0C0C3B00E6FC08E6FD08E6FE08E6FF22E5
:0C0C4700E0FCA3E0FDA3E0FEA3E0FF2220
:0C0C5300E2FC08E2FD08E2FE08E2FF22DD
:100C5F00E493FC740193FD740293FE740393FF22DB
:0C0C6F00ECF608EDF608EEF608EFF622B1
:0C0C7B00ECF0A3EDF0A3EEF0A3EFF022EC
:0C0C8700ECF208EDF208EEF208EFF222A9
:00000001FF
