:1017EE006572726F72000D0A00636F7272656374B8
:1017FE00006572726F7220330061626E6F726D617E
:06180E006C54480D0A00B5
:1017180006530A0A0A0A0A0A0659010203040506B8
:10172800034E000053014B00014D00014C000147DE
:0F17380000014A00014600024800000251000073
:10194900758921758C3C758AB0D2A9D2AFD28C2207
:10116800E4F508F509F50AF50BF50C1214A7EFF4E8
:10117800600C1214A78F081214A7EFF470F9E50891
:10118800D394304023E5089439501DE558640A701B
:1011980017E50824D0FFAB4E0550E550AA4F700262
:1011A800054F14F9EF020B23E508642A60030212C5
:1011B80080F509F50AAF0A74592FF8E6FE74532F23
:1011C800F8E66E6006750B00750C01050AE50A70F5
:1011D8000205096406450970DCE50C6401450B70DD
:1011E80029054DC2B37FF47E01121856D2B37BFF96
:1011F8007A1779EE7F017E0012167C7F2012000399
:10120800E54D2430FF1200038029754B01E4F54DAC
:101218007FB4FE12190CC2B37FF47E01121856D2A5
:10122800B3E4FF1217BD7BFF7A1779F77F017E00C1
:1012380012167C7BFF7A1779F47F017E0012167CE8
:10124800E54D64037016754B02D2B2FF1217BD7BD1
:10125800FF7A1779FF7F057E0012167CE4F509F501
:101268000A7453250AF8760A050AE50A7002050980
:101278006406450970EB801FE508B42324E4F509EA
:10128800F50A7453250AF8760A050AE50A70020574
:10129800096406450970EB754E00754F007550538B
:1012A80022E508B4411AC3E54D9403748094805034
:1012B8000FE4F54BF54DFFFE12190CE4FF0217BDC4
:1012C800E508B44411E4F54BF54DFFFE12190CE4A2
:0612D800FF1217BDC2B2B7
:0112DE0022ED
:100CB700121835121949121938E4FFFE12190CC21D
:100CC700B2D2B3750B13E4FBFD7F01121568750BE8
:100CD700047B08E4FD7F01121620AE48AF497C0073
:100CE7007D64120B578F0B7B10E4FD7F011215C437
:100CF700AE48AF497C007D0A120B577C007D0A1273
:100D07000B578D0B7B18E4FD7F011215C4750B0B78
:100D17007B20E4FD7F01121620AE48AF497C007DA1
:100D27000A120B578D0B7B28E4FD7F011215C47542
:100D37000B107B30E4FD7F0112150C750B07E4FBEC
:100D4700FD7F02121568750B047B08E4FD7F021214
:100D57001620AE51AF527C007D64120B578F0B7B70
:100D670010E4FD7F021215C4AE51AF527C007D0A1C
:100D7700120B577C007D0A120B578D0B7B18E4FD75
:100D87007F021215C4750B0B7B20E4FD7F02121640
:100D970020AE51AF527C007D0A120B578D0B7B287A
:100DA700E4FD7F021215C4750B077B30E4FD7F025B
:100DB700121620AF4BEF600464017054E4F50BFB8F
:100DC7007D027F0112150C750B017B107D027F01DF
:100DD70012150C750B027B207D027F0112150C7515
:100DE7000B047B307D027F01121620E4F50B7B3864
:100DF7007D027F011215C4E4F50BFB7D027F021211
:100E070015C4750B017B087D027F021215C480365D
:100E1700E54B64027030750B0C7B207D027F01125D
:100E2700150C750B0D7B307D027F0112150C750BB0
:100E37000EE4FB7D027F0212150C750B0F7B107DF4
:100E4700027F0212150CE54B705685530BFB7D0490
:100E57007F011215C485540B7B087D047F01121591
:100E6700C485550B7B107D047F011215C485560B75
:100E77007B187D047F011215C485570B7B207D04E9
:100E87007F011215C485580B7B287D047F0112153D
:100E9700C4854D0B7B307D047F021215C4020F3BC6
:100EA700E54B64017041F50BFB7D047F0112150CC6
:100EB700750B017B107D047F0112150C750B027BEE
:100EC700207D047F0112150C750B037B307D047F99
:100ED7000112150C750B04E4FB7D047F0212150C3F
:100EE700750B057B108046E54B64027047F50B7B5D
:100EF700107D047F0112150C750B017B207D047F8B
:100F07000112150C750B027B307D047F0112150C45
:100F1700750B03E4FB7D047F0212150C750B067B32
:100F2700107D047F0212150C750B077B207D047F53
:100F37000212150CE54B702F750B08FB7D067F0120
:100F470012150C750B097B107D067F0112150C75A8
:100F57000B0A7B207D067F0212150C750B0B7B306D
:100F67007D067F0212150C750B00750C00750D516F
:100F77007B007A0079481212DF121168AE48AF4938
:100F87007C007D0A120B57D3EF9428EE648094807F
:100F97005016AE51AF527C007D0A120B57D3EF9417
:100FA70050EE64809480401C754714E54660030248
:100FB7000CCA7BFF7A1879077F05FE12167C7546E7
:0E0FC70001020CCAE4F547D2B3F546020CCA8B
:03000B00021814C4
:10181400C0E0C0D0758C3C758AB0E547600E054CBD
:10182400E54CC395474005B2B3754C00D0D0D0E029
:011834003281
:10000E00108C4404E40495A64424148444940C00F7
:10001E0002027A414143427E42424243F8000000CE
:10002E000484E45C44C40002F2828282FE8080007A
:10003E0002017F10103F00080808084888403F0062
:10004E0020908C87EC948414C847444C54C404000C
:10005E0040201806FF041800FF92929292FF0000B3
:10006E000000E28282828282828282FE0000000092
:10007E0000003F404040404040404040407800003B
:10008E00101010FF109004040404FC040404040077
:10009E000444827F0100000040807F0000000000C9
:1000AE0080828282FE8282828282FE8282828000B0
:1000BE00008040300F0000000000FF000000000034
:1000CE0020102CE7242400E22C20BF2028E600007C
:1000DE000101017F2111804F20100F10204F800051
:1000EE000202C23E2222E202FE02824222120000DE
:1000FE00028140211A0601003F4140404078000035
:10010E000484E45C44C42010E82724E4342CE0008A
:10011E0002017F10103F80601F09093F49897F004F
:10012E00100C4444444445C64444444444140C0016
:10013E008040201E2040407F4444444444404000C0
:10014E000202FE929292FE0206FC040404FC0000DF
:10015E0008180F080804FF04844027182740800061
:10016E001060020CC000E22C203F2028E6000000A8
:10017E0004047C030000FF09090949897F0000007F
:10018E004030EF246448487F4848487F4848400044
:10019E0001017F211100FF4949494949FF00000033
:1001AE004042CC0000809E92929292929E800000DD
:1001BE0000007F2094844424140F1424448484006B
:1001CE0012EAAFAAEA0FFA02888C5724548C8400E4
:1001DE000202EAAAAAABAAABAAAAAAAAEA02020039
:1001EE00101010FF109000FE82828292A29E0000DC
:1001FE000444827F010000FF80432C102C438000BA
:10020E00060909E6F80C040202020202041E0000AE
:10021E00000000071F3020404040404020100000EA
:10022E0000E010080810E000000F102020100F0052
:10023E0000001010F8000000000020203F202000D9
:10024E00007008080808F000003028242221300031
:10025E0000300808088870000018202121221C0098
:10026E000000804030F8000000060524243F2424BE
:10027E0000F88888880808000019202020110E0038
:10028E0000E0108888900000000F112020201F0031
:10029E0000180808886818000000003E01000000E1
:1002AE000070880808887000001C222121221C0082
:1002BE0000F008080810E0000001122222110F00C1
:1002CE00000000000000000000010101010101001A
:1002DE0000000000E0000000000101010F0101011B
:1002EE0000000000000000000001010101010100FA
:1002FE00404080F0804040000202010F01020200E7
:10030E0000000000C0380400006018070000000064
:10031E000000000000000000000036360000000063
:10032E00000038340282C27C000000000037370023
:10033E0000020102020402000000000000000000A2
:10034E00F008F0806018000000310C031E211E0022
:10035E000040C07840C0780000043F04043F040011
:10036E000000804020100800000102040810200048
:10037E000008102040800000002010080402010038
:10038E0000000000000000000030300000000000FF
:10039E000000C038E0000000203C23020227382075
:1003AE0008F8888888700000203F202020110E0059
:1003BE00C030080808083800071820202010080050
:1003CE0008F808080810E000203F202020100F0039
:1003DE0008F88888E8081000203F20202320180005
:1003EE0008F88888E8081000203F2000030000006D
:1003FE00C03008080838000007182020221E02000E
:10040E0008F808000008F808203F210101213F20CC
:10041E00000808F8080800000020203F20200000F7
:10042E0000000808F8080800C08080807F000000E7
:10043E0008F888C028180800203F20012638200020
:10044E0008F8080000000000203F20202020300087
:10045E0008F8F800F8F80800203F013E013F2000A0
:10046E0008F830C00008F808203F200007183F00A9
:10047E00E01008080810E0000F10202020100F00D8
:10048E0008F808080808F000203F210101010000CB
:10049E00E01008080810E0000F10282830504F0018
:1004AE0008F8888888887000203F2000030C3020D0
:1004BE0000708808080838000038202121221C000E
:1004CE00180808F8080818000000203F2000000057
:1004DE0008F808000008F808001F202020201F0040
:1004EE000878880000C83808000007380E010000A0
:1004FE0008F800F800F8080000033E013E03000073
:10050E00081868808068180820302C03032C3020CF
:10051E000838C800C83808000000203F200000003E
:10052E0010080808C8380800203826212020180096
:10053E00000080808000000000192424123F20005B
:10054E0010F0008080000000003F112020110E00EE
:10055E000000008080800000000E1120202011007D
:10056E00000080808090F000001F202020103F208F
:10057E000000808080800000001F242424241700A7
:10058E00008080E0909020000020203F202000007E
:10059E000000808080808000006B949494936000B3
:1005AE0010F0008080800000203F210000203F20BE
:1005BE0000809898000000000020203F20200000BE
:1005CE00000000809898000000C08080807F0000AE
:1005DE0010F0000080808000203F2406293020008B
:1005EE00001010F8000000000020203F2020000026
:1005FE008080808080808000203F20003F20003F50
:10060E008080008080800000203F210000203F205D
:10061E000000808080800000001F202020201F000E
:10062E00808000808000000080FF912020110E004D
:10063E000000008080008000000E11202091FF80BD
:10064E00808080008080800020203F2120000100DB
:10065E000000808080808000003324242424190030
:10066E00008080E0808000000000001F202010002D
:10067E008080000000808000001F202020103F207E
:10068E00808080008080800000030C300C0300000E
:10069E008080008080008080010E300C07380601BB
:1006AE0000808080008080000020310E2E312000DE
:1006BE00808080000080808000818678180601008E
:1006CE0000808080808080000021302C222130002C
:10187400C2A2D2A1E4F580D2A0AF80C2A053078057
:09188400EF7003D38001C350EBA7
:01188D002238
:10195900AE07121874C2A2C2A18E80D2A0C2A02260
:061987004307B8021959E4
:06198D004307C0021959D6
:0F18F400AC0312188E53043FAF05121987AF04CF
:0919030053073F43074002195944
:0619930043073E02195952
:05192300F583E493FFD1
:10192800AE07121874D2A2C2A18E80D2A0C2A02281
:10188E00EF1460111460092402700EC2A4C2A522C6
:0A189E00D2A4C2A522C2A4D2A52242
:1017BD0012188EE4FDEDC39408748094805021AF0F
:1017CD0005121987E4FF121903E4FCECC39440746D
:1017DD008094805008E4FF1219280C80EE0D80D5FE
:0117ED0022D9
:10183500121874E4FF12188E121993E4FF12188E11
:101845000F121993E4FF12188E1217BDE4FF021947
:011855008D05
:10150C001218F4E4FBFA75F020E50BA42BF582E538
:10151C00F03AF583E582240EF582E5833400121946
:10152C00230BBB00010AEB64104A70DAED04FF12C6
:10153C0018FEE4FAFB75F020E50BA42BF582E5F020
:10154C003AF583E582241EF582E5833400121923D3
:0B155C000BBB00010AEB64104A70DAC0
:011567002261
:101568001218F4E4FBFA75F010E50BA42BF582E5EC
:10157800F03AF583E582249EF582E5833403121957
:10158800230BBB00010AEB64084A70DAED04FF1272
:1015980018FEE4FAFB75F010E50BA42BF582E5F0D4
:1015A8003AF583E58224A6F582E5833403121923EC
:0B15B8000BBB00010AEB64084A70DA6C
:0115C3002205
:1015C4001218F4E4FBFA75F010E50BA42BF582E590
:1015D400F03AF583E582242EF582E583340212196C
:1015E400230BBB00010AEB64084A70DAED04FF1216
:1015F40018FEE4FAFB75F010E50BA42BF582E5F078
:101604003AF583E5822436F582E583340212192300
:0B1614000BBB00010AEB64084A70DA0F
:01161F0022A8
:101620001218F4E4FBFA75F010E50BA42BF582E533
:10163000F03AF583E58224DEF582E583340212195F
:10164000230BBB00010AEB64084A70DAED04FF12B9
:1016500018FEE4FAFB75F010E50BA42BF582E5F01B
:101660003AF583E58224E6F582E5833402121923F4
:0B1670000BBB00010AEB64084A70DAB3
:01167B00224C
:101969003132334134353642373839432A3023440A
:1014A700780D7C007D007BFF7A1979697E007F10BB
:1014B700120AE4E4FDEDC39404748094805043A8B9
:1014C700057410088002C333D8FCF4F590E4FCECF3
:1014D700C394047480948050267E007401A8040885
:1014E7008005C333CE33CED8F9FFAB90EF5B700CDA
:1014F700EC25E025E0240D2DF8E6FF220C80D00D29
:0415070080B37FFF2F
:01150B0022BD
:03199900DFFE224C
:10185600D3EF9400EE940040147D7B7C00ED1D7068
:0D186600011CED4C70F7EF1F70E61E80E3D3
:011873002252
:10175200E4FE7D80EDD39400748094804017ED5FA9
:101762006004D2A78002C2A7D2A6000000C2A6EDE2
:10177200C313FD80DFD2A7D2A6A2A7E433000000E4
:05178200C2A6D2A7FF82
:01178700223F
:10178800E4FED2A77D80EDD394007480948040104D
:10179800D2A630A703ED4206C2A6EDC313FD80E62C
:1017A800EF24FFB392A7D2A6000000C2A600000053
:0417B800D2A7AF06FF
:0117BC00220A
:1018C200D2A7C2A600D2A600C2A700C2A6000000EC
:0918D200D2A600D2A700C2A62292
:1018A800D2A7C2A6E4FFEFC39409748094805007BE
:0A18B800D2A6C2A60F80EF0218C2EC
:0D197900E4FC1218A87F1E121752EC2FFF7D
:01198600223E
:06141F008B188A19891ADE
:10142500E4F51FF5201218C2E51E146007047018B4
:101435007F0380027F05121752EF3395E0FEEF25FB
:1014450020F520EE351FF51F900000AF82AE83E436
:10145500FCFD7BFF7AFFF9F8D3120BBA400630A7E3
:1014650003A380E730A7080520E5207002051F7F4C
:1014750001121788AB18AA19A91AEF120B237F01BD
:10148500121788AB18AA19A91A900001EF120B358B
:10149500E4FF121788AB1BAA1CA91DEF120B23AF83
:0114A5002026
:0114A6002223
:060FD5008B188A19891A2D
:100FDB00E4F521F520751F80751EC0752554752409
:100FEB00E375232575223D7529A27528E775273BE7
:100FFB007526B6752D0A752CD7752B23752A3C755E
:10100B0031AC7530C5752FA7752E38120BD08F35B7
:10101B008E348D338C32AB1BAA1CA91D120BD08FB7
:10102B00398E388D378C367F0A7ED77D237C3CAB4F
:10103B0039AA38A937A8361207D6E4FBFA792078F3
:10104B00C21206E58F458E448D438C42AF35AE34CC
:10105B00AD33AC32AB29AA28A927A8261207D6ABE9
:10106B0035AA34A933A8321207D6C004C005C0066E
:10107B00C007AF35AE34AD33AC32AB25AA24A923B0
:10108B00A8221207D6D003D002D001D0001206E559
:10109B00AB21AA20A91FA81E1206E58F3D8E3C8D01
:1010AB003B8C3AAF35AE34AD33AC32AB31AA30A951
:1010BB002FA82E1207D6AB2DAA2CA92BA82A1206C5
:1010CB00E5C004C005C006C007E4FFFE7DC87CC1B7
:1010DB00AB45AA44A943A8421206E5D003D002D0DF
:1010EB0001D0001207D6AB3DAA3CA93BA83A120689
:1010FB00E58F418E408D3F8C3EE4FFFE7DC87C42E8
:10110B00AB41AA40A93FA83E1208DC600D400BE49E
:10111B00F541F540753FC8753E427FCD7ECC7DCC09
:10112B007C3DAB41AA40A93FA83E1208DC500C7590
:10113B0041CD7540CC753FCC753E3DAF45AE44AD12
:10114B0043AC42AB1BAA1CA91D120BF0AF41AE4026
:0D115B00AD3FAC3EAB18AA19A91A020BF06B
:0612DF008B088A09890A50
:1012E500E4F516F51B751C00751D17F51EFB7A0038
:1012F500791212141FEF2516F516751B00751C00C3
:10130500751D17751E017B007A00790E12141FEFEB
:101315002516F51660030218A8AC0EAD0FE41209E8
:101325005A8F118E108D0F8C0EAC12AD13E412096D
:101335005A8F158E148D138C12751B00751C007534
:101345001D127B007A00790E120FD5E4FFFE7D2079
:101355007C41AB15AA14A913A8121207D61209933A
:10136500AB08AA09A90AEE8FF0120B8DE4FFFE7DEA
:10137500207C41AB11AA10A90FA80E1207D612099D
:0D13850093AB0BAA0CA90DEE8FF0120B8D8F
:011392002238
:0A174700085F0602030109080C0404
:0718DB00745F2569F8E6FFC8
:1018E200EF1392B4EFA2E192B5A2E292B6A2E39212
:0218F200B7221B
:10190C007C007D2D120B577C007D08120B57745FE9
:07191C002DF8E6FF0218E2BE
:0416CD008C678D6831
:1016D100EF64017022F569C3E56994087480948010
:1016E10050341218DBC374889568FF74139567FE34
:1016F100121856056980E0756907C37480948040AB
:10170100151218DBC374889568FF74139567FE1270
:061711001856156980E482
:0117170022AF
:10193800759850758921758DFD758BFDD2AFD28E46
:01194800227C
:080003008F993099FDC299228A
:0A167C008E0D8F0E8B0F8A1089115E
:101686008B128A138914E4FDFCC3ED950EE50D64F7
:1016960080F8EC648098502E850F12851013851102
:1016A60014AB12AA13A914120B0A60130514E5143D
:1016B6007002051314F9120B0AFF12000380E20DE3
:0616C600BD00010C80C311
:0116CC0022FB
:1006DE000209FFE86480F8E933E83360110460F042
:1006EE00ED33EC337009E8FCE9FDEAFEEBFF220482
:1006FE0060DED3EB9FEA9EE99DE8C2E78CF0C2F77D
:10070E0095F0400CE8CCF8E9CDF9EACEFAEBCFFB48
:10071E001209CA85D0F05804700320D5B3E80470CE
:10072E00075002B2D5020A0992D5EC0460F7E4CC68
:10073E00C0E0C398F8603B94186008400DD0E0FB11
:10074E000209E1E4FBFAC9FC8028E830E406E4C9BA
:10075E00FBE4CAFCE830E305E4C9CACBFCE8540765
:10076E006010F8C3E913F9EA13FAEB13FBEC13FC70
:10077E00D8F130F52FC3E49CFCEF9BFFEE9AFEED13
:10078E0099FDD0E0FBEF4E4D4C701222DB03020AB6
:10079E0006EC2CFCEF33FFEE33FEED33FDED30E7D0
:1007AE00EB0209E1EF2BFFEE3AFEED39FDD0E0FB57
:1007BE0050130BBB0003020A09ED13FDEE13FEEFFF
:0807CE0013FFEC13FC0209E12A
:1007D600EC4D6011E8497017ED33EC3304600DE41D
:1007E600FCFFFEFD22E933E8330470F80209FF122C
:1007F60009CA58046009E4CC24815006285009022D
:100806000A09284003020A06C0E0EB4A7044B98090
:1008160006D0E0FB0209F5EF4E701CBD8008EBFF29
:10082600EAFEE9FD80EBE98DF0A4FEE5F00208BFE3
:10083600E9CDF9EAFEEBFFEF89F0A4FCE5F0CE89FD
:10084600F0A42EFFE435F0CD89F0A42DFEE435F0BA
:100856008067EF4E7005BD80D780C3EF8BF0A4ACE8
:10086600F0EE8BF0A42CFCE435F0F8EF8AF0A42C23
:10087600E5F038FCE433CB8DF0A42CFCE5F03BF836
:10088600EE8AF0A42CFCE5F038F8E433CF89F0A426
:100896002CFCE5F038CF3400CE89F0A42FFFE5F02C
:1008A6003EFEE433C98DF0A42EFEE5F039CD8AF084
:1008B600A42FFFE5F03EFEE43DFD33D0E0FB5007FC
:1008C6000BBB000F020A09EC2CFCEF33FFEE33FEE4
:0608D600ED33FD0209E113
:1008DC0074F8CC6480CCC86480C8F58204604FC3C3
:1008EC00EB9FF5F0EA9E42F0E99D42F0E89C45F062
:1008FC00603C501DE5825FFFE582D313CB5BCBF4EC
:10090C002B5582FB50280ABA002409B90020088014
:10091C001DE5825BFBE582D313CF5FCFF4C3132FAE
:10092C005582FF50090EBE00050DBD00010CC3EB36
:10093C009FF5F0EA9E42F0E99D42F0E89C45F0609C
:09094C0007CC4820E701B3EC22BE
:1009550075F020800E75F010800575F0087D007E1D
:10096500007F003392D530D503120BACEC33401029
:10097500EF33FFEE33FEED33FDEC33FCD5F0ED2226
:0E098500E5F0247EA2D513CC92E7CDCEFF2262
:10099300EDD2E7CD33EC3392D524814006E4FFFE5C
:1009A300FDFC22FCE4CFCECDCC24E0501174FF80BB
:1009B300EDC3CC13CCCD13CDCE13CECF13CF047058
:0709C300F030D5DE020BACA1
:1009CA00E9D2E7C933E833F892D5EDD2E7CD33EC73
:0709DA0033FC5002B2D522EC
:1009E100EC30E7100FBF000C0EBE00080DBD000477
:1009F1000BEB6014A2D5EB13FCED92E7FD2274FF23
:100A0100FCFDFEFF22E480F8A2D574FF13FC7D807B
:030A1100E480EF8F
:0300000002139355
:0C139300787FE4F6D8FD7581690213DA5A
:100A1400E709F608DFFA8046E709F208DFFA803EC4
:100A240088828C83E709F0A3DFFA8032E309F608B1
:100A3400DFFA8078E309F208DFFA807088828C8319
:100A4400E309F0A3DFFA806489828A83E0A3F608CD
:100A5400DFFA805889828A83E0A3F208DFFA804CA7
:100A640080D280FA80C680D4806980F2803380107E
:100A740080A680EA809A80A880DA80E280CA8033E7
:100A840089828A83ECFAE493A3C8C582C8CCC5835F
:100A9400CCF0A3C8C582C8CCC583CCDFE9DEE7802F
:100AA4000D89828A83E493A3F608DFF9ECFAA9F0AE
:100AB400EDFB2289828A83ECFAE0A3C8C582C8CC04
:100AC400C583CCF0A3C8C582C8CCC583CCDFEADE1D
:100AD400E880DB89828A83E493A3F208DFF980CC7F
:100AE40088F0EF60010E4E60C388F0ED2402B40478
:100AF4000050B9F582EB2402B4040050AF2323451F
:060B04008223900A6473D5
:100B0A00BB010689828A83E0225002E722BBFE02E9
:090B1A00E32289828A83E493221C
:100B2300BB010689828A83F0225002F722BBFE01B1
:020B3300F322AB
:100B3500F8BB010DE58229F582E5833AF583E8F0F6
:100B4500225006E92582C8F622BBFE05E92582C8A2
:020B5500F2228A
:100B5700C2D5EC30E709B2D5E4C39DFDE49CFCEEB9
:100B670030E715B2D5E4C39FFFE49EFE120C0AC31B
:100B7700E49DFDE49CFC8003120C0A30D507C3E416
:060B87009FFFE49EFE2228
:100B8D00BB010A89828A83F0E5F0A3F0225006F7B3
:0F0B9D0009A7F01922BBFE06F3E5F009F31922B0
:0E0BAC00C3E49FFFE49EFEE49DFDE49CFC225A
:100BBA00EB9FF5F0EA9E42F0E99D42F0EC6480C8B2
:060BCA0064809845F02252
:100BD000BB010789828A83020C6B5005E9F8020C7D
:100BE0005FBBFE05E9F8020C7789828A83020C83D9
:100BF000BB010789828A83020C9F5005E9F8020C29
:0A0C000093BBFE05E9F8020CAB22DD
:10139F00020CB7E493A3F8E493A34003F68001F2A1
:1013AF0008DFF48029E493A3F85407240CC8C3334F
:1013BF00C4540F4420C8834004F456800146F6DF1E
:1013CF00E4800B0102040810204080901718E47E7F
:1013DF00019360BCA3FF543F30E509541FFEE49313
:1013EF00A360010ECF54C025E060A840B8E493A3DA
:1013FF00FAE493A3F8E493A3C8C582C8CAC583CA05
:10140F00F0A3C8C582C8CAC583CADFE9DEE780BEBC
:011751000097
:100C0A00BC000BBE0029EF8DF084FFADF022E4CCCE
:100C1A00F875F008EF2FFFEE33FEEC33FCEE9DEC97
:100C2A00984005FCEE9DFE0FD5F0E9E4CEFD22EDDD
:100C3A00F8F5F0EE8420D21CFEADF075F008EF2F27
:100C4A00FFED33FD4007985006D5F0F222C398FD18
:050C5A000FD5F0EA22B5
:0C0C5F00E6FC08E6FD08E6FE08E6FF22C1
:0C0C6B00E0FCA3E0FDA3E0FEA3E0FF22FC
:0C0C7700E2FC08E2FD08E2FE08E2FF22B9
:100C8300E493FC740193FD740293FE740393FF22B7
:0C0C9300ECF608EDF608EEF608EFF6228D
:0C0C9F00ECF0A3EDF0A3EEF0A3EFF022C8
:0C0CAB00ECF208EDF208EEF208EFF22285
:00000001FF
